{
  "_format": "hh-sol-artifact-1",
  "contractName": "Vault",
  "sourceName": "contracts/TempoVault.sol",
  "abi": [
    {
      "inputs": [
        {
          "internalType": "address",
          "name": "_token",
          "type": "address"
        }
      ],
      "stateMutability": "nonpayable",
      "type": "constructor"
    },
    {
      "inputs": [
        {
          "internalType": "address",
          "name": "",
          "type": "address"
        }
      ],
      "name": "_balanceOfmembershipToken",
      "outputs": [
        {
          "internalType": "uint256",
          "name": "",
          "type": "uint256"
        }
      ],
      "stateMutability": "view",
      "type": "function"
    },
    {
      "inputs": [
        {
          "internalType": "address",
          "name": "",
          "type": "address"
        }
      ],
      "name": "_membershipTokenOf",
      "outputs": [
        {
          "internalType": "uint256",
          "name": "",
          "type": "uint256"
        }
      ],
      "stateMutability": "view",
      "type": "function"
    },
    {
      "inputs": [
        {
          "internalType": "uint256",
          "name": "",
          "type": "uint256"
        }
      ],
      "name": "_ownerOfmembershipToken",
      "outputs": [
        {
          "internalType": "address",
          "name": "",
          "type": "address"
        }
      ],
      "stateMutability": "view",
      "type": "function"
    },
    {
      "inputs": [],
      "name": "admin",
      "outputs": [
        {
          "internalType": "address",
          "name": "",
          "type": "address"
        }
      ],
      "stateMutability": "view",
      "type": "function"
    },
    {
      "inputs": [
        {
          "internalType": "address",
          "name": "",
          "type": "address"
        }
      ],
      "name": "balanceOf",
      "outputs": [
        {
          "internalType": "uint256",
          "name": "",
          "type": "uint256"
        }
      ],
      "stateMutability": "view",
      "type": "function"
    },
    {
      "inputs": [
        {
          "internalType": "uint256",
          "name": "_amount",
          "type": "uint256"
        }
      ],
      "name": "deposit",
      "outputs": [],
      "stateMutability": "nonpayable",
      "type": "function"
    },
    {
      "inputs": [],
      "name": "feePercent",
      "outputs": [
        {
          "internalType": "uint256",
          "name": "",
          "type": "uint256"
        }
      ],
      "stateMutability": "view",
      "type": "function"
    },
    {
      "inputs": [],
      "name": "token",
      "outputs": [
        {
          "internalType": "contract IERC20",
          "name": "",
          "type": "address"
        }
      ],
      "stateMutability": "view",
      "type": "function"
    },
    {
      "inputs": [],
      "name": "totalSupply",
      "outputs": [
        {
          "internalType": "uint256",
          "name": "",
          "type": "uint256"
        }
      ],
      "stateMutability": "view",
      "type": "function"
    },
    {
      "inputs": [
        {
          "internalType": "uint256",
          "name": "_shares",
          "type": "uint256"
        }
      ],
      "name": "withdraw",
      "outputs": [],
      "stateMutability": "nonpayable",
      "type": "function"
    }
  ],
  "bytecode": "0x60a060405234801561000f575f5ffd5b5060405161087638038061087683398101604081905261002e91610056565b6001600160a01b0316608052600280546001600160a01b031916331790556064600355610083565b5f60208284031215610066575f5ffd5b81516001600160a01b038116811461007c575f5ffd5b9392505050565b6080516107b86100be5f395f8181610178015281816101da015281816102b30152818161034f01528181610450015261050601526107b85ff3fe608060405234801561000f575f5ffd5b506004361061009b575f3560e01c8063b6b55f2511610063578063b6b55f2514610116578063ce7ae2ce14610129578063f851a44014610148578063fc0c546a14610173578063fcc54bee1461019a575f5ffd5b806318160ddd1461009f5780632e1a7d4d146100ba57806370a08231146100cf5780637c831de9146100ee5780637fd6f15c1461010d575b5f5ffd5b6100a75f5481565b6040519081526020015b60405180910390f35b6100cd6100c8366004610692565b6101c2565b005b6100a76100dd3660046106a9565b60016020525f908152604090205481565b6100a76100fc3660046106a9565b60076020525f908152604090205481565b6100a760035481565b6100cd610124366004610692565b61042b565b6100a76101373660046106a9565b60066020525f908152604090205481565b60025461015b906001600160a01b031681565b6040516001600160a01b0390911681526020016100b1565b61015b7f000000000000000000000000000000000000000000000000000000000000000081565b61015b6101a8366004610692565b60056020525f90815260409020546001600160a01b031681565b5f80546040516370a0823160e01b81523060048201527f00000000000000000000000000000000000000000000000000000000000000006001600160a01b0316906370a0823190602401602060405180830381865afa158015610227573d5f5f3e3d5ffd5b505050506040513d601f19601f8201168201806040525081019061024b91906106d6565b6102559084610701565b61025f919061071e565b905061026b338361057d565b5f6127106003548361027d9190610701565b610287919061071e565b90505f610294828461073d565b60405163a9059cbb60e01b8152336004820152602481018290529091507f00000000000000000000000000000000000000000000000000000000000000006001600160a01b03169063a9059cbb906044016020604051808303815f875af1158015610301573d5f5f3e3d5ffd5b505050506040513d601f19601f820116820180604052508101906103259190610750565b5060025460405163a9059cbb60e01b81526001600160a01b039182166004820152602481018490527f00000000000000000000000000000000000000000000000000000000000000009091169063a9059cbb906044016020604051808303815f875af1158015610397573d5f5f3e3d5ffd5b505050506040513d601f19601f820116820180604052508101906103bb9190610750565b50335f908152600160205260409020541580156103e65750335f908152600660205260409020546001145b1561042557335f818152600760208181526040808420805485526005835281852080546001600160a01b03191690559484526006825283208390555290555b50505050565b5f5f545f0361043b5750806104da565b6040516370a0823160e01b81523060048201527f00000000000000000000000000000000000000000000000000000000000000006001600160a01b0316906370a0823190602401602060405180830381865afa15801561049d573d5f5f3e3d5ffd5b505050506040513d601f19601f820116820180604052508101906104c191906106d6565b5f546104cd9084610701565b6104d7919061071e565b90505b6104e433826105c2565b6040516323b872dd60e01b8152336004820152306024820152604481018390527f00000000000000000000000000000000000000000000000000000000000000006001600160a01b0316906323b872dd906064016020604051808303815f875af1158015610554573d5f5f3e3d5ffd5b505050506040513d601f19601f820116820180604052508101906105789190610750565b505050565b805f5f82825461058d919061073d565b90915550506001600160a01b0382165f90815260016020526040812080548392906105b990849061073d565b90915550505050565b805f5f8282546105d2919061076f565b90915550506001600160a01b0382165f90815260016020526040812080548392906105fe90849061076f565b9091555061060d905082610611565b5050565b6001600160a01b0381165f90815260066020526040812054900361068f57600160045f828254610641919061076f565b9091555050600480545f90815260056020908152604080832080546001600160a01b0319166001600160a01b0387169081179091558352600682528083206001905592546007909152919020555b50565b5f602082840312156106a2575f5ffd5b5035919050565b5f602082840312156106b9575f5ffd5b81356001600160a01b03811681146106cf575f5ffd5b9392505050565b5f602082840312156106e6575f5ffd5b5051919050565b634e487b7160e01b5f52601160045260245ffd5b8082028115828204841417610718576107186106ed565b92915050565b5f8261073857634e487b7160e01b5f52601260045260245ffd5b500490565b81810381811115610718576107186106ed565b5f60208284031215610760575f5ffd5b815180151581146106cf575f5ffd5b80820180821115610718576107186106ed56fea264697066735822122048ff68c9ff239d5e47ce7a8b9376617d499868ecf0fe83f4f38699f05f24b97f64736f6c634300081c0033",
  "linkReferences": {},
  "deployedLinkReferences": {}
}